:1000000012C02CC02BC02AC029C028C027C026C0BF
:1000100025C024C023C022C021C020C01FC01EC0D4
:100020001DC01CC01BC011241FBECFE5D4E0DEBF25
:10003000CDBF10E0A0E6B0E0EEE7F5E002C005902D
:100040000D92A63FB107D9F710E0A6EFB0E001C0CE
:100050001D92AF3FB107E1F71BD28FC2D1CF89B953
:1000600090BD88E18AB986E880BD08955D9BFECF8A
:100070008CB90895CF93DF93EC018991882311F017
:10008000F5DFFBCFDF91CF910895EF92FF920F93B1
:100090001F93CF93DF93EC018AEC90E0EBDF40E11C
:1000A00066EF70E08881998135D286EF90E0E2DFDB
:1000B00083ED90E0DFDF8D8140E166EF70E090E05E
:1000C00029D286EF90E0D6DF80EE90E0D3DF8C81FE
:1000D00040E166EF70E090E01DD286EF90E0CADF6D
:1000E0007E0186E0E80EF11C00E010E08D8190E0DA
:1000F000081719078CF488EE90E0BCDFF7018191B6
:100100007F0140E166EF70E090E004D286EF90E07E
:10011000B1DF0F5F1F4FEACF8EE990E0DF91CF9103
:100120001F910F91FF90EF90A5CF87B3886287BB97
:1001300088B3877C88BBBA9AC29A80E58DB981E082
:100140008EB908958FB9779BFECF8FB108951F9315
:10015000CF93DF931F92CDB7DEB7182FC29882E0FE
:100160006983F0DF812FEEDF6981862FEBDFC29A92
:100170000F90DF91CF911F910895CF93C82FC29810
:1001800083E0E0DF8C2FDEDF8FEFDCDFC29ACF91E0
:1001900008951F93CF93DF9300D0CDB7DEB7182F0C
:1001A000C29885E04A836983CDDF812FCBDF6981E7
:1001B000862FC8DF4A81842FC5DFC29A0F900F9027
:1001C000DF91CF911F910895B0DFC29880ECBADF24
:1001D00083E397E00197F1F7C29A8FEF97E40197D5
:1001E000F1F700C0000067E08AE2B1DF60E989E270
:1001F000AEDF62E088E2ABDF63E08BE2A8DF60E6BF
:1002000080E6A5DF60E680E7A2DF60E080E59FDFB3
:1002100060E081E29CDF60E082E299DF60E083E2FF
:1002200096DF60E084E293DF60E085E290DF60E0EB
:1002300086E28DDF60E087E28ADF40E060EE8FE0FB
:10024000A8CFEF92FF920F931F93CF93DF93CDB779
:10025000DEB72A970FB6F894DEBF0FBECDBFFC0104
:100260002581293008F09FC08C01C29880EA6ADF9E
:100270008FEF68DFC29A82FF07C084FF07C086FD48
:1002800094C054E0F52E04C0F12C02C042E0F42EDC
:10029000C2988F2D806456DFF80180819181A28100
:1002A000B38125E1B695A795979587952A95D1F7BE
:1002B00049DFF8014081518162817381DB01CA010C
:1002C0003DE0B695A795979587953A95D1F7807EAD
:1002D000962F9370892B886035DFF801818132DF9A
:1002E000F80180812FDFF8018481882321F0858146
:1002F000806828DF0FC0F801858124DFE12CF80138
:100300008581E81638F4F801EE0DF11D86811ADFBB
:10031000E394F5CFC29A000081E32FDF42E050E082
:10032000BE016F5F7F4F90E0EBD0CE010196A2DE61
:1003300083EF90E09FDE82E320DF42E050E0BE01E9
:100340006F5F7F4F90E0DCD0CE01019693DE83EFAC
:1003500090E090DE83E311DF42E050E0BE016F5F8A
:100360007F4F90E0CDD0CE01019684DE83EF90E008
:1003700081DE84E302DF42E050E0BE016F5F7F4F29
:1003800090E0BED0CE01019675DE83EF90E072DE84
:10039000C298F11002C081E802C08F2D8068D2DEC1
:1003A000C29A80E003C082E001C081E02A960FB6C5
:1003B000F894DEBF0FBECDBFDF91CF911F910F919B
:1003C000FF90EF900895C29880EBBCDE8FEFBADE0D
:1003D000C29A0895FF920F931F93CF93DF93EC017E
:1003E000F2DF082F182F107486FF03C0C29880E92F
:1003F00004C087FF45C0C29884E9A4DE8FEFA2DE67
:1004000028E0829FC0011124A0E0B0E08883998396
:10041000AA83BB838FEF96DE282F2295269527701F
:1004200088819981AA81BB81822B88839983AA8341
:10043000BB838FEF87DE8FEF85DE8FEF83DE8F70DC
:100440008D83F12C8D81F81640F48FEF7BDEFE0159
:10045000EF0DF11D8683F394F5CFC29A03FF03C01D
:1004600081E08C8301C01C8240E0112329F061E00F
:100470008CE28FDE10E005C062E08CE28ADE01C013
:1004800011E0812FDF91CF911F910F91FF9008957F
:10049000CF93DF93CDB7DEB76C970FB6F894DEBF7E
:1004A0000FBECDBFA29AA39A8AE392E1AFEABAE166
:1004B0008F87988BA98BBA8B1B8A84E08C8B91E0F9
:1004C0009D8B92E09E8B93E09F8B888F8FE290E0D4
:1004D000C6DD80E690E0CEDD77DE81EA90E0CADD21
:1004E000AA9ACE010F96ADDE83EB90E0C3DDCE017C
:1004F000019670DF8111FBCFCE010196C6DDF7CFEB
:100500004532510518F4423008F004C0FB01108256
:10051000CB010895BB274A3031F4992322F4BDE280
:10052000909581959F4F01C0BB27FB015527AA27B6
:10053000880F991FAA1FA41710F0A41B8395505170
:10054000B9F7A05DAA3308F0A95DA193009779F7E8
:10055000B111B1931192CB0100C0DC01FC01672FF6
:1005600071917723E1F7329704C07C916D9370838A
:0E0570006291AE17BF07C8F30895F894FFCF4D
:10057E004156522D43414E2D44656D6F20436F649D
:10058E00650A0D46656C697820536368756C7A65EB
:10059E0020323031350A0D6D61696C4066656C69CB
:1005AE0078736368756C7A652E636F6D0A0D0A0D2C
:1005BE00003A3A20496E6974206D637032353135D8
:1005CE000A0D003A3A2073656E64207465737420C8
:1005DE006D6573736167650A0D000A0D49443A2013
:1005EE003078000A0D4C656E6774683A20307800DA
:1005FE000A0D5254523A20000A0D446174613A2099
:06060E003078000A000034
:00000001FF
