:1000000012C02CC02BC02AC029C028C027C026C0BF
:1000100025C024C023C023C021C04AC01FC01EC0A9
:100020001DC01CC01BC011241FBECFE5D4E0DEBF25
:10003000CDBF10E0A0E6B0E0E6E9F2E002C0059036
:100040000D92A037B107D9F710E0A0E7B0E001C0EA
:100050001D92A53BB107E1F710D11BC1D1CF1F9273
:100060000F920FB60F9211242F938F939F93EF93BC
:10007000FF938BB19CB18871E0917200EF5FEF71DB
:1000800020917100E21739F0E0937200F0E0EB5834
:10009000FF4F908301C082E080937000FF91EF9149
:1000A0009F918F912F910F900FBE0F901F901895D9
:1000B0001F920F920FB60F9211248F939F93EF937D
:1000C000FF939091740080917300981761F0E09114
:1000D0007300EF5FEF71E0937300F0E0EB56FF4FBA
:1000E00080818CB901C05598FF91EF919F918F91BC
:1000F0000F900FBE0F901F901895109274001092E1
:100100007300109272001092710097FF03C022E0FA
:100110002BB99F7790BD89B988E98AB986E880BDF7
:1001200008959091720080917100981791F0E0917C
:100130007100EF5FEF71E0937100F0E0EB58FF4F5B
:1001400020818091700090E0982F8827820F911D68
:10015000089580E091E00895909174009F5F9F71F1
:10016000209173009217E1F3E92FF0E0EB56FF4F77
:10017000808390937400559A0895CF93DF93EC0198
:100180008991882311F0E8DFFBCFDF91CF910895AB
:10019000CF93DF93FC018491EF012196882319F01E
:1001A000DBDFFE01F8CFDF91CF91089587B388623E
:1001B00087BB88B3877C88BBBA9AC29A80E58DB921
:1001C00081E08EB908958FB9779BFECF8FB10895E6
:1001D0001F93CF93DF931F92CDB7DEB7182FC2982E
:1001E00082E06983F0DF812FEEDF6981862FEBDF0C
:1001F000C29A0F90DF91CF911F910895CF93C82F8E
:10020000C29883E0E0DF8C2FDEDF8FEFDCDFC29A65
:10021000CF9108951F93CF93DF9300D0CDB7DEB772
:10022000182FC29882E04A836983CDDF812FCBDF0C
:100230006981862FC8DF4A81842FC5DFC29A0F905B
:100240000F90DF91CF911F910895B0DFC29880EC9D
:10025000BADF83E397E00197F1F7C29A8FEF97E453
:100260000197F1F700C0000067E08AE2B1DF60E9C2
:1002700089E2AEDF62E088E2ABCFA29AA39A8FE276
:1002800090E03BDF7894AB9A80E690E076DFAA9A24
:06029000FFCFF894FFCF40
:1002960043414E2D44656D6F20436F64650A0D0022
:00000001FF
