:1000000012C024C023C022C021C020C01FC01EC0F7
:100010001DC01CC01BC01AC019C018C017C016C014
:1000200015C014C013C011241FBECFE5D4E0DEBF3D
:10003000CDBF10E0A0E6B0E0E2E5F2E002C005903E
:100040000D92A63CB107D9F7D6D001C1D9CF89B955
:1000500090BD88E18AB986E880BD08955D9BFECF9A
:100060008CB90895CF93DF93EC018991882311F027
:10007000F5DFFBCFDF91CF91089587B3886287BB0F
:1000800088B3877C88BBBA9AC29A80E58DB981E033
:100090008EB908958FB9779BFECF8FB108951F93C6
:1000A000CF93DF931F92CDB7DEB7182FC29882E0AF
:1000B0006983F0DF812FEEDF6981862FEBDFC29A43
:1000C0000F90DF91CF911F910895CF93C82FC298C1
:1000D00083E0E0DF8C2FDEDF8FEFDCDFC29ACF9191
:1000E00008951F93CF93DF9300D0CDB7DEB7182FBD
:1000F000C29882E04A836983CDDF812FCBDF69819B
:10010000862FC8DF4A81842FC5DFC29A0F900F90D7
:10011000DF91CF911F910895B0DFC29880ECBADFD4
:1001200083E397E00197F1F7C29A8FEF97E4019785
:10013000F1F700C0000067E08AE2B1DF60E989E220
:10014000AEDF62E088E2ABDF63E08BE2A8DF60E66F
:1001500080E6A5DF60E680E7A2DF60E080E59FDF64
:1001600060E081E29CDF60E082E299DF60E083E2B0
:1001700096DF60E084E293DF60E085E290DF60E09C
:1001800086E28DDF60E087E28ADF40E060EE8FE0AC
:10019000A8CF0F931F93CF93DF93EC011B8168814E
:1001A000798183E0769567958A95E1F781E377DF3A
:1001B00068816295660F607E82E371DF8A81612FBC
:1001C000882321F0606885E36ADF0CC085E367DF80
:1001D000249600E0011731F0699186E3800F5FDF1C
:1001E0000F5FF8CFC29881E855DFC29ADF91CF91B7
:1001F0001F910F910895CF93DF93CDB7DEB72C9762
:100200000FB6F894DEBF0FBECDBFA29AA39A83E2C9
:1002100091E09A8389831B8282E08C8384E08D83C2
:1002200083EF8E838FE290E012DFAB9A80E690E05E
:1002300019DFAA9A71DFAB9A8DE990E013DFAA9AD1
:100240008FEA90E00FDFCE010196A3DFFFCFF89495
:02025000FFCFDE
:1002520043414E2D44656D6F20436F64650A0D4620
:10026200656C697820536368756C7A652032303129
:10027200350A0D6D61696C4066656C6978736368F7
:10028200756C7A652E636F6D0A0D0A0D003A3A207D
:10029200496E6974206D6370323531350A0D003A4A
:1002A2003A2073656E642074657374206D65737390
:0602B2006167650A0D0002
:00000001FF
